:101D6600420028000042004D0000420050000042A0
:101D760000530000420055000042002200004200CD
:101D860026000042002A000042002C0000410042CA
:101D9600004100470041004A0044007E0000000068
:101DA6004400760000000044008600000000420067
:101DB6001E0000420020000042002400000216001F
:101DC6000002140000021800000221000002230095
:101DD600004400160000000044001A000000004401
:101DE600007A000000004400000000000044008269
:101DF6000000000044000400000000440008000049
:101E0600000044000C000000004400340000000004
:101E160044003A0000000044006600000000440050
:101E26006A0000000044003E000000004400430039
:101E3600000000420048000042006E0000420070B0
:101E460000004400590000000044005D000000004E
:101E56004400610000000042001000004200120031
:061E660000420014000020
:102D3300538E7F5389F0758A40758CA2C28DD28CD5
:032D4300D2A922F0
:102CCC00E4FDFCC3ED9FEC9E5015E4FBFA0BBB003E
:0F2CDC00010AEB64FA4A70F50DBD00010C80E4AB
:012CEB0022C6
:03000B0002000EE2
:10000E00C0E0C0F0C083C082C0D075D000C000C0B8
:10001E0001C002C003C004C005C006C007122CEC0C
:10002E007B007A0079397D0F122B7A7B007A00796A
:10003E0029122A517466FBFA7D997C19AF2AAE29D2
:10004E00121EA990001EEEF0A3EFF07466FBFA7D6F
:10005E00997C19AF2CAE2B121FDF900020EEF0A36F
:10006E00EFF07466FBFA7D997C19AF2EAE2D12213E
:10007E0015900024EEF0A3EFF0AC31AD32EC121A75
:10008E003FE4FBFA7983784212191F121A7878141A
:10009E00A60608A607AC33AD34EC121A3FE4FBFA01
:1000AE007983784212191F121A787816A60608A6B6
:1000BE00077466FBFA7D997C19AF36AE3512224B6A
:1000CE007818EEF608EFF6FDAC06EC121A3FE4FBDC
:1000DE00FA7983784212191F90002F121C5B781444
:1000EE00E6FC08E6FDEC121A3F900016121C5B7837
:1000FE0016E6FC08E6FDEC121A3F90001A121C5B85
:10010E007814E6FC08E6FDEC121A3F7B397AFA7990
:10011E008E783C121816C004C005C006C0077816AB
:10012E00E6FC08E6FDEC121A3F7B397AFA798E78F6
:10013E003C12181690008E121C5B7F397EFA7D8E53
:10014E007C3C90002FE0F8A3E0F9A3E0FAA3E0FBDB
:10015E00121816900092121C5B90001EE0FCA3E099
:10016E00FDEC121A3F900096121C5B900020E0FCF2
:10017E00A3E0FDEC121A3F90009A121C5B90002433
:10018E00E0FCA3E0FDEC121A3F90009E121C5BD027
:10019E0007D006D005D004120E9290002EE0FF90EC
:1001AE00004CE0B5074990004BE004F0C3941450A6
:1001BE000302025C7413F0900074E4F0A37480F0F8
:1001CE00900038E4F0A37480F0900057E4F0A3742C
:1001DE0080F0D3900029E09414900028E094004021
:1001EE006DA3E024FFF0900028E034FFF0805F90D4
:1001FE00004BE4F0900072E0FEA3E0FFD394E9EE32
:10020E009403400C9000727403F0A374E8F0803EE7
:10021E00D3EF9432EE94004026900073E0242CFD30
:10022E00900072E03401FCE4121A3F7B667A667924
:10023E00A6783F12191F121A78900028EE800B90A4
:10024E000072E0FFA3E0900028CFF0A3EFF0900043
:10025E004CE090002EF0900072E0FFA3E09000289A
:10026E00CFF0A3EFF0E5222484FFE5213403FED383
:10027E00EF94B0EE648094844002802FC3EF94F428
:10028E00EE6480948150028022E5242484FFE523CD
:10029E003403FED3EF94B0EE648094844002800B5E
:1002AE00C3EF94F4EE64809481500BC281900028C9
:1002BE00E4F0A3F08002D281900038E0FCA3E0FDD0
:1002CE00E4121A3FE4FBFAF978C3121725E4FBFA9D
:1002DE00F97840121816121A78900010EEF0A3EF6B
:1002EE00F0C3E49522FDE49521FCC3ED9FFBEC9E4B
:1002FE00FA900042E0FF3395E0FE7C007D05121B74
:10030E0068EF2BFDEE3AFC121A3F90003E121C5B7A
:10031E00D3900029E09414900028E09400900000FF
:10032E004024E0FCA3E0FDA3E0FEA3E0FF90003E2E
:10033E00E0F8A3E0F9A3E0FAA3E0FB121725900082
:10034E0000121C5B8007121C6700000000E4FFFE19
:10035E007D487C44900000E0F8A3E0F9A3E0FAA306
:10036E00E0FB1219BC600E400C900000121C67449A
:10037E004800008024E4FFFE7D487CC4900000E02D
:10038E00F8A3E0F9A3E0FAA3E0FB1219BC500A901F
:10039E000000121C67C448000090003EE0FCA3E081
:1003AE00FDA3E0FEA3E0FF121A78EC121A3AE4FB6A
:1003BE00FA79407841121816121A787810121C4FDA
:1003CE00900000E0FCA3E0FDA3E0FEA3E0FF121A04
:1003DE0078E47B5C7A0FF9F8121B7A780F121BD730
:1003EE00780C121C4F7816E6FC08E6FDEC121A3F4C
:1003FE0090001AE0F8A3E0F9A3E0FAA3E0FB1217CD
:10040E0025E4FBFAF9784012191F7B667A6679A605
:10041E007840121816121A787808121C4F780C129F
:10042E001BFE7810121C26EB2FFFEA3EFEE93DFD67
:10043E00E83CFC7808121C26EF2BFFEE3AFEED3955
:10044E00FDEC38FCEF2405FFE43EFEE43DFDE43C0C
:10045E00FCE47B0AFAF9F8122BCFEC121A3A8F2829
:10046E008E278D268C2590003EE0FCA3E0FDA3E0B8
:10047E00FEA3E0FF900034121C5B7816E6FC08E643
:10048E00FDEC121A3FA804A905AA06AB07AF28AEC9
:10049E0027AD26AC25121721121A7890006EEEF0B9
:1004AE00A3EFF0D3900029E09414900028E094007C
:1004BE0090007A4032E0F8A3E0F9A3E0FAA3E0FB63
:1004CE00C000C001C002C00390006EE0FCA3E0FDBE
:1004DE00EC121A3FD003D002D001D0001217259093
:1004EE00007A121C5B8007121C6700000000E4FFFC
:1004FE00FE7D487C4490007AE0F8A3E0F9A3E0FA90
:10050E00A3E0FB1219BC600E400C90007A121C671F
:10051E00444800008024E4FFFE7D487CC490007AAD
:10052E00E0F8A3E0F9A3E0FAA3E0FB1219BC500A2D
:10053E0090007A121C67C448000090006EE0FEA383
:10054E00E0FFEE3395E0FDFCE47BAE7A27F9F8127E
:10055E001B7A780F121BD77810121C4F90007AE07E
:10056E00FCA3E0FDA3E0FEA3E0FF121A78E47B8972
:10057E007A01F9F8121B7A780F121BD7780C121C1D
:10058E004F90006EE0FEA3E0FFEE3395E0FDFC120F
:10059E001A3A900066E0F8A3E0F9A3E0FAA3E0FBB4
:1005AE001217217B9A7A9979897840121816121AA5
:1005BE00787808121C4F780C121BFE7810121C262D
:1005CE00EB2FFFEA3EFEE93DFDE83CFC7808121CED
:1005DE0026EF2BFFEE3AFEED39FDEC38FC121A3AFF
:1005EE008F288E278D268C2590006EE0FCA3E0FDD3
:1005FE00EC121A3F900066121C5BE4FFFE7D7A7CC3
:10060E0044AB28AA27A926A8251219BC600E400CB7
:10061E0075280075270075267A752544E4FFFE7D42
:10062E007A7CC4AB28AA27A926A8251219BC500C7F
:10063E0075280075270075267A7525C4AF28AE2754
:10064E00AD26AC25121A7890004DEEF0A3EFF0AF68
:10065E0028AE27AD26AC25121A29121A7890005012
:10066E00EEF0A3EFF0AF28AE27AD26AC25121A7828
:10067E00900055EEF0A3EFF0AF28AE27AD26AC25D7
:10068E00121A29121A78900053EEF0A3EFF0900090
:10069E0057E0FCA3E0FDE4121A3FE4FBFAF978C33D
:1006AE00121725E4FBFAF97840121816121A7890F0
:1006BE000012EEF0A3EFF0C3E49524FDE49523FCC5
:1006CE00C3ED9FFBEC9EFA900047E0FF3395E0FEF2
:1006DE007C007D05121B68C3EB9FFDEA9EFC121A7F
:1006EE003F900043121C5BD3900029E094149000BD
:1006FE0028E094009000044024E0FCA3E0FDA3E079
:10070E00FEA3E0FF900043E0F8A3E0F9A3E0FAA314
:10071E00E0FB121725900004121C5B8007121C6769
:10072E0000000000E4FFFE7D487C44900004E0F8E9
:10073E00A3E0F9A3E0FAA3E0FB1219BC600E400C93
:10074E00900004121C67444800008024E4FFFE7DE4
:10075E00487CC4900004E0F8A3E0F9A3E0FAA3E01B
:10076E00FB1219BC500A900004121C67C44800000A
:10077E00900043E0FCA3E0FDA3E0FEA3E0FF121A0D
:10078E0078EC121A3AE4FBFA7940784112181612F4
:10079E001A787810121C4F900004E0FCA3E0FDA321
:1007AE00E0FEA3E0FF121A78E47B5C7A0FF9F812F0
:1007BE001B7A780F121BD7780C121C4F7814E6FC9C
:1007CE0008E6FDEC121A3F900016E0F8A3E0F9A33C
:1007DE00E0FAA3E0FB121725E4FBFAF978401219B0
:1007EE001F7B667A6679A67840121816121A7878E8
:1007FE0008121C4F780C121BFE7810121C26EB2FC1
:10080E00FFEA3EFEE93DFDE83CFC7808121C26EFAF
:10081E002BFFEE3AFEED39FDEC38FCEF2405FFE43C
:10082E003EFEE43DFDE43CFCE47B0AFAF9F8122BB3
:10083E00CFEC121A3A8F288E278D268C25900043E6
:10084E00E0FCA3E0FDA3E0FEA3E0FF90003A121C43
:10085E005B7814E6FC08E6FDEC121A3FA804A90525
:10086E00AA06AB07AF28AE27AD26AC25121721126C
:10087E001A78900070EEF0A3EFF0D3900029E09478
:10088E0014900028E094009000824032E0F8A3E03B
:10089E00F9A3E0FAA3E0FBC000C001C002C00390C0
:1008AE000070E0FCA3E0FDEC121A3FD003D002D0A2
:1008BE0001D000121725900082121C5B8007121CBB
:1008CE006700000000E4FFFE7D487C44900082E05B
:1008DE00F8A3E0F9A3E0FAA3E0FB1219BC600E4006
:1008EE000C900082121C67444800008024E4FFFE36
:1008FE007D487CC4900082E0F8A3E0F9A3E0FAA35F
:10090E00E0FB1219BC500A900082121C67C448000A
:10091E0000900070E0FEA3E0FFEE3395E0FDFCE4F6
:10092E007BAE7A27F9F8121B7A780F121BD7781044
:10093E00121C4F900082E0FCA3E0FDA3E0FEA3E0BA
:10094E00FF121A78E47B897A01F9F8121B7A780F74
:10095E00121BD7780C121C4F900070E0FEA3E0FF24
:10096E00EE3395E0FDFC121A3A90006AE0F8A3E02F
:10097E00F9A3E0FAA3E0FB1217217B9A7A99798901
:10098E007840121816121A787808121C4F780C122A
:10099E001BFE7810121C26EB2FFFEA3EFEE93DFDF2
:1009AE00E83CFC7808121C26EF2BFFEE3AFEED39E0
:1009BE00FDEC38FC121A3A8F288E278D268C259046
:1009CE000070E0FCA3E0FDEC121A3F90006A121CCE
:1009DE005BE4FFFE7D7A7C44AB28AA27A926A825D6
:1009EE001219BC600E400C75280075270075267A0A
:1009FE00752544E4FFFE7D7A7CC4AB28AA27A92680
:100A0E00A8251219BC500C75280075270075267A7A
:100A1E007525C490004DE0FCA3E0FDEC121A3FAB2F
:100A2E0028AA27A926A825121725121A7890004D54
:100A3E00EEF0A3EFF0900050E0FCA3E0FDEC121AF4
:100A4E003FAB28AA27A926A825121725121A789097
:100A5E000050EEF0A3EFF0900055E0FCA3E0FDECAB
:100A6E00121A3FAB28AA27A926A825121721121A57
:100A7E0078900055EEF0A3EFF0900053E0FCA3E069
:100A8E00FDEC121A3FAB28AA27A926A8251217217A
:100A9E00121A78900053EEF0A3EFF0900074E0FC81
:100AAE00A3E0FDE4121A3FE4FBFAF978C31217250E
:100ABE00E4FBFA79827842121816C004C005C0060B
:100ACE00C0077818E6FE08E6FFC3E49FFDE49EFC2F
:100ADE00121A3FD003D002D001D000121725C00445
:100AEE00C005C006C00790004AE0FF3395E0FE7CCB
:100AFE00007D14121B68AC06AD07EC121A3FD00332
:100B0E00D002D001D000121725121A78900014EEE0
:100B1E00F0A3EFF0D3900029E09414900028E09415
:100B2E00009000084032E0F8A3E0F9A3E0FAA3E059
:100B3E00FBC000C001C002C003900014E0FCA3E0A3
:100B4E00FDEC121A3FD003D002D001D000121725AF
:100B5E00900008121C5B8007121C67000000007FCB
:100B6E00007E507D437C47900008E0F8A3E0F9A397
:100B7E00E0FAA3E0FB1219BC600E400C90000812C4
:100B8E001C674743500080257F007E507D437CC705
:100B9E00900008E0F8A3E0F9A3E0FAA3E0FB121935
:100BAE00BC500A900008121C67C7435000900014F6
:100BBE00E0FEA3E0FFEE3395E0FDFC121A3AE4FBF3
:100BCE00FA79A07840121816121A787810121C4F63
:100BDE00900008E0FCA3E0FDA3E0FEA3E0FF121AE4
:100BEE0078E47BB87A1EF9F8121B7A780F121BD7AD
:100BFE00780C121C4F900014E0FEA3E0FFEE33952C
:100C0E00E0FDFC121A3A90000CE0F8A3E0F9A3E024
:100C1E00FAA3E0FB121721E4FBFA79807840121850
:100C2E0016121A787808121C4F780C121BFE7810C8
:100C3E00121C26EB2FFFEA3EFEE93DFDE83CFC7858
:100C4E0008121C26EF2BFFEE3AFEED39FDEC38FCB8
:100C5E007806121BD7EC121A3A8F288E278D268C07
:100C6E0025900014E0FCA3E0FDEC121A3F90000C5E
:100C7E00121C5B90004DE0FCA3E0FDEC121A3FABA2
:100C8E0028AA27A926A825121725121A7890004DF2
:100C9E00EEF0A3EFF0900050E0FCA3E0FDEC121A92
:100CAE003FAB28AA27A926A825121721121A789039
:100CBE000050EEF0A3EFF0900055E0FCA3E0FDEC49
:100CCE00121A3FAB28AA27A926A825121721121AF5
:100CDE0078900055EEF0A3EFF0900053E0FCA3E007
:100CEE00FDEC121A3FAB28AA27A926A82512172514
:100CFE00121A78900053EEF0A3EFF090004DE0FE44
:100D0E00A3E0FF900028E0FCA3E0FD2FFFEC3EFEE9
:100D1E00900022F0A3EFF0D394E8EE648094834029
:100D2E000C9000227403F0A374E8F0800FC39000BF
:100D3E0022E0648094805004E4F0A3F0900050E030
:100D4E00FEA3E02DFFEC3EFE900026F0A3EFF0D3C5
:100D5E0094E8EE64809483400C9000267403F0A314
:100D6E0074E8F0800FC3900026E0648094805004F5
:100D7E00E4F0A3F0900053E0FEA3E0FF900028E023
:100D8E00FCA3E0FD2FFFEC3EFEA3F0A3EFF0D39407
:100D9E00E8EE64809483400C90002A7403F0A374F0
:100DAE00E8F0800FC390002AE0648094805004E441
:100DBE00F0A3F0900055E0FEA3E02DFFEC3EFE9078
:100DCE00002CF0A3EFF0D394E8EE64809483400CF3
:100DDE0090002C7403F0A374E8F0800FC390002CE5
:100DEE00E0648094805004E4F0A3F0900065E06429
:100DFE00057060C3900029E0941E900028E09400D6
:100E0E004051900026E0FEA3E0FF74E89FFF7403BC
:100E1E009EFEC006C00790002AE0FEA3E0FFC3744A
:100E2E00E89FFD74039EFCA3E0FEA3E0FFC374E8FD
:100E3E009FFB74039EFA900022E0FEA3E0FFC374B2
:100E4E00E89F9000B9F074039E9000B8F0D007D0E0
:100E5E000680139000B87403F0A374E8F0FB7A03D5
:100E6E00FD7C03FF7E03122C4ED007D006D005D09A
:100E7E0004D003D002D001D000D0D0D082D083D005
:040E8E00F0D0E0328E
:1024A3001228809000B87403F0A374E8F0FB7A0359
:1024B300FD7C03FF7E03122C4EC281D297D2967FFE
:1024C300647E00122CCCD281C297D296122CCCD22D
:1024D30081D297C296122CCCD281D297D2967F0A00
:1024E300122CCC122C887F0A7E00122CCC1225C40D
:1024F3007F647E00122CCC122D33122CCCE490007E
:1025030072F0A3F0A3F0A37480F0900038E4F0A37A
:102513007480F0900057E4F0A37480F0C296E490C6
:102523000042F0900047F090004AF0D2AFE5392521
:102533003A253B253C253D253E253F254025412584
:1025430042FF90004FF0900052E543F06F705690B9
:10255300004CE539F0900065E53AF0E53B75F0FF96
:10256300A47C00253CFEEC35F0900072F0A3CEF085
:10257300A3E4F0A3E53DF0900038E4F0A3E53EF0DA
:10258300900057E4F0A3E53FF0E54024809000423B
:10259300F0E5412480900047F0E542248090004A12
:1025A300F0D2978002C297900065E0FFB40102D297
:1025B30096EFB40502C2967F037E00122CCC02254F
:0125C30030E7
:10288000E4F594F593F592F591F596F595F5B2F595
:10289000B1F5B4F5B3F5CAF5C9F5CCF5CBF5E2F56C
:1028A000E175960EF59575B280F5B175BA8075F142
:1028B000B090FFF27410F0E4F5F6F5F790FFF074C5
:1028C00003F0A374E9F090FF04E4F090FF14F0909B
:1028D000FF24F090FF34F090FF007403F0A374E83D
:1028E000F0A37403F0A374E9F090FF107403F0A355
:1028F00074E8F0A37403F0A374E9F090FF2074036C
:10290000F0A374E8F0A37403F0A374E9F090FF302F
:102910007403F0A374E8F0A37403F0A374E9F075F2
:08292000F58F90FFF2E4F022B4
:102C4E009000B2EEF0A3EFF09000B2E090FF00F033
:102C5E009000B2A3E090FF01F0EC90FF10F0A3ED16
:102C6E00F0EA90FF20F0A3EBF09000B8E0FCA3E0B8
:0A2C7E00FDEC90FF30F0A3EDF02212
:102D4600D3EF9400EE94004007EF1F70F31E80F05F
:012D5600225A
:042B18007B01E4FD5C
:072B1C009000B2EFF0A905E3
:102B2300C291E4FFFE9000B2E0FD339293D295C2CE
:102B330095ED25E0F00FBF00010EEF64084E70E540
:102B4300E4FEFFE9339293D295C295E925E0F90FAC
:102B5300BF00010EEF64084E70E9E4FEFFEB339211
:102B630093D295C295EB25E0FB0FBF00010EEF64F6
:062B7300084E70E9D2914A
:012B79002239
:102AB500C29174802FFFE4FBFAEF339293D295C253
:102AC50095EF25E0FF0BBB00010AEB64084A70E9AE
:102AD500E4FAFBD295C2959000CAE025E0FFF0A28A
:102AE50094E4334FF00BBB00010AEB64084A70E332
:102AF500E4FAFBD295C2959000CBE025E0FFF0A269
:102B050094E4334FF00BBB00010AEB64084A70E311
:022B1500D2915B
:012B1700229B
:1025C400C2927FF47E01122D46D2927FF47E0112D4
:1025D4002D46D2B27BEF7D6FE4FF122B1C7B817DF5
:1025E400567F01122B1C7B177D667F02122B1C7BEE
:1025F400C97D9C7F04122B1C7B377D667F05122BC3
:102604001CE4FBFD7F07122B1C7B907D6C7F081262
:102614002B1CE4FB7D487F09122B1C7BFD7D7F7FF7
:102624000A122B1C7B08E4FD7F0B122B1CE4FBFD20
:102634007F0C122B1C7BBD7D487F0D122B1C7BFF56
:10264400E4FD7F16122B1C7B057D807F17122B1C4B
:102654007B67E4FD7F18122B1C7B597D167F1912B2
:102664002B1C7BE07D197F1A122B1CE4FB7D137F4E
:102674001B122B1CE4FB7D187F1C122B1CE4FB7D1E
:10268400587F20122B1C7BC77D3F7F21122B1CE41B
:10269400FB7D207F22122B1CE4FB7D0A7F23122B5F
:1026A4001C7F24122B187F25122B187B01E4FD7F3D
:1026B40026122B1C7B01E4FD7F27122B1C7B027D41
:1026C400447F28122B1CE4FB7DB87F29122B1C7B32
:1026D400FF7DFD7F2A122B1C7B0FE4FD7F2B022B39
:0126E4001CD9
:102CEC007B807D807F34122B1C7BA0E4FD7F071240
:092CFC002B1C7FC87E00022D464E
:0B2B7A0090008AEBF0A3EAF0A3E9F062
:102B8500E4FE7F32122AB59000CAE06D703BA3E0E7
:102B95007037EEC39D50327F32122AB59000CAE0DD
:102BA500FF90008AE0FBA3E0FAA3E0F9AC060E8CE7
:102BB50082758300EF121B469000CBE0AC060E8CAD
:092BC50082758300121B4680C9D1
:012BCE0022E4
:101E6C0004653F800000046900000000046D000060
:101E7C000000047100000000045900000000045D23
:101E8C000000000004610000000004750000000068
:0C1E9C00047900000000047D000000003C
:060E920090008A121C5BB7
:100E980090009AE0FCA3E0FDA3E0FEA3E0FF900031
:100EA8009AE0F8A3E0F9A3E0FAA3E0FB121816C051
:100EB80004C005C006C007900096E0FCA3E0FDA3AF
:100EC800E0FEA3E0FFA804A905AA06FB121816D0A5
:100ED80003D002D001D000121725C004C005C006F7
:100EE800C00790009EE0FCA3E0FDA3E0FEA3E0FFA6
:100EF800A804A905AA06FB121816D003D002D0012F
:100F0800D0001217251226E57881121C4F90009602
:100F1800E0FCA3E0FDA3E0FEA3E0FF7881121C261D
:100F2800121816900096121C5B90009AE0FCA3E041
:100F3800FDA3E0FEA3E0FF7881121C26121816908C
:100F4800009A121C5B90009EE0FCA3E0FDA3E0FE6B
:100F5800A3E0FF7881121C2612181690009E121C1E
:100F68005B786D121BFE7865121C26121816C004D9
:100F7800C005C006C0077871121BFE7869121C26CE
:100F8800121816D003D002D001D000121721E4FBAA
:100F9800FAF978401218167885121C4F7871121BCE
:100FA800FE786D121C26121816C004C005C006C0B3
:100FB800077869121BFE7865121C26121816D003D2
:100FC800D002D001D000121725E4FBFAF9784012BC
:100FD80018167889121C4F7869121BFE7869121C42
:100FE80026121816C004C005C006C0077865121B73
:100FF800FE7865121C26121816D003D002D001D034
:1010080000121721C004C005C006C007786D121B66
:10101800FE786D121C26121816A804A905AA06AB9C
:1010280007D007D006D005D004121721C004C00588
:10103800C006C0077871121BFE7871121C261218A0
:1010480016D003D002D001D000121725788D121CBB
:101058004F7889121BFE90009EE0F8A3E0F9A3E008
:10106800FAA3E0FB121816C004C005C006C0077832
:101078008D121BFE90009AE0F8A3E0F9A3E0FAA312
:10108800E0FB121816D003D002D001D000121721AD
:101098007891121C4F788D121BFE900096E0F8A3F1
:1010A800E0F9A3E0FAA3E0FB121816C004C005C0DB
:1010B80006C0077885121BFE90009EE0F8A3E0F9B1
:1010C800A3E0FAA3E0FB121816D003D002D001D097
:1010D800001217217895121C4F7885121BFE90007C
:1010E8009AE0F8A3E0F9A3E0FAA3E0FB121816C00F
:1010F80004C005C006C0077889121BFE900096E060
:10110800F8A3E0F9A3E0FAA3E0FB121816D003D085
:1011180002D001D0001217217899121C4F78591269
:101128001C26C000C001C002C0037F6F7E127D83F1
:101138007C3A7891121C26121816D003D002D001DE
:10114800D0001217257859121C4F785D121C26C042
:1011580000C001C002C0037F6F7E127D837C3A7895
:1011680095121C26121816D003D002D001D00012F6
:101178001725785D121C4F7861121C26C000C0012B
:10118800C002C0037F6F7E127D837C3A7899121C5F
:1011980026121816D003D002D001D00012172578D5
:1011A80061121C4F784D121C26C0007891121BFE4C
:1011B800D0001217217875121C4F7851121C26C0C6
:1011C800007895121BFED0001217217879121C4F57
:1011D8007855121C26C0007899121BFED0001217F1
:1011E80021787D121C4F7891121BFE784D121C4FEE
:1011F8007895121BFE7851121C4F7899121BFE78B5
:1012080055121C4FE4FFFEFD7C407891121C2612FB
:10121800181690008AE0F8A3E0F9A3E0FAA3E0FB2F
:101228001217257859121C26121725C004C005C0AC
:1012380006C0077F6F7E127D837C3A7875121C2664
:10124800121816D003D002D001D000121725900032
:101258008A121C5BE4FFFEFD7C407895121C261266
:10126800181690008EE0F8A3E0F9A3E0FAA3E0FBDB
:10127800121725785D121C26121725C004C005C058
:1012880006C0077F6F7E127D837C3A7879121C2610
:10129800121816D003D002D001D0001217259000E2
:1012A8008E121C5BE4FFFEFD7C407899121C26120E
:1012B8001816900092E0F8A3E0F9A3E0FAA3E0FB87
:1012C8001217257861121C26121725C004C005C004
:1012D80006C0077F6F7E127D837C3A787D121C26BC
:1012E800121816D003D002D001D000121725900092
:1012F80092121C5B7865121C26C000C001C002C097
:10130800037869121BFE121A2990008AE0F8A3E0FC
:10131800F9A3E0FAA3E0FB121816C004C005C00642
:10132800C00790008EE0FCA3E0FDA3E0FEA3E0FF71
:10133800786D121C26121816A804A905AA06AB0770
:10134800D007D006D005D004121721C004C005C0AC
:1013580006C007900092E0FCA3E0FDA3E0FEA3E036
:10136800FF7871121C26121816A804A905AA06AB44
:1013780007D007D006D005D0041217217B0A7AD7E8
:1013880079A3783B121816D003D002D001D00012EE
:1013980017257865121C4F7869121C26C000C001F9
:1013A800C002C003900092E0FCA3E0FDA3E0FEA30E
:1013B800E0FF786D121C26121816C004C005C0067E
:1013C800C00790008AE0FCA3E0FDA3E0FEA3E0FFD5
:1013D8007865121C26121816D003D002D001D0004E
:1013E800121725C004C005C006C00790008EE0FC97
:1013F800A3E0FDA3E0FEA3E0FF7871121C261218FB
:1014080016A804A905AA06AB07D007D006D005D0B0
:10141800041217217B0A7AD779A3783B121816D0C1
:1014280003D002D001D0001217257869121C4F781A
:101438006D121C26C000C001C002C003900092E0DB
:10144800FCA3E0FDA3E0FEA3E0FF7869121C2612CE
:101458001816C004C005C006C00790008EE0FCA3A3
:10146800E0FDA3E0FEA3E0FF7865121C2612181623
:10147800D003D002D001D000121721C004C005C08B
:1014880006C00790008AE0FCA3E0FDA3E0FEA3E00D
:10149800FF7871121C26121816D003D002D001D082
:1014A800001217257B0A7AD779A3783B121816D031
:1014B80003D002D001D000121725786D121C4F7886
:1014C80071121C26C000C001C002C00390008EE04B
:1014D800FCA3E0FDA3E0FEA3E0FF7869121C26123E
:1014E8001816C004C005C006C007900092E0FCA30F
:1014F800E0FDA3E0FEA3E0FF7865121C2612181693
:10150800D003D002D001D000121725C004C005C0F6
:1015180006C00790008AE0FCA3E0FDA3E0FEA3E07C
:10152800FF786D121C26121816A804A905AA06AB86
:1015380007D007D006D005D0041217217B0A7AD726
:1015480079A3783B121816D003D002D001D000122C
:1015580017257871121C4F7869121BFE7869121CC6
:1015680026121816C004C005C006C0077865121BED
:10157800FE7865121C26121816D003D002D001D0AE
:1015880000121725C004C005C006C007786D121BDD
:10159800FE786D121C26121816D003D002D001D086
:1015A80000121725C004C005C006C0077871121BB9
:1015B800FEA804A905AA06AB07121816D003D00284
:1015C800D001D0001217251226E57881121C4F7819
:1015D80065121BFE7881121C261218167865121CDB
:1015E8004F7869121BFE7881121C2612181678692A
:1015F800121C4F786D121BFE7881121C26121816C9
:10160800786D121C4F7871121BFE7881121C2612FD
:1016180018167871121C4FE4FFFEFD7C40786512A5
:101628001C261218167869121C26121816C004C037
:1016380005C006C007E4FFFEFD7C40786D121C263D
:101648001218167871121C26121816D003D002D060
:1016580001D000121725C004C005C006C007E4FF6A
:10166800FEFD7C40786D121C26121816786D121C2F
:1016780026121816C004C005C006C007E4FFFEFD08
:101688007CC07869121C261218167869121C26125A
:101698001816D003D002D001D000121721E4FBFAAB
:1016A8007980783F1217259000A6121C5BD007D0CE
:1016B80006D005D0041229287B4D7A3D790F78444D
:1016C800121816121A788E238F247871121BFE783E
:1016D80069121C26121816C004C005C006C0077877
:1016E8006D121BFE7865121C26121816D003D00244
:1016F800D001D000121721E4FBFAF978401218162D
:10170800122C137B4D7A3D790F7844121816121A51
:05171800788E218F22F4
:01171D0022A9
:0626E5009000A2121C5B34
:1026EB00E4FFFEFD7C3F9000A2E0F8A3E0F9A3E03D
:1026FB00FAA3E0FB1218169000A6121C5B9000A226
:10270B00E0FCA3E0FDA3E0FEA3E0FF9000AA121CF7
:10271B005B9000AAE0FCA3E0FDA3E0FEA3E0FFA317
:10272B00121C5B9000AEE0FCA3E0FDA3E0FEA3E077
:10273B00FF7801121BD7C374DF9FFF74599EFE7481
:10274B00379DFD745F9CFC9000AE121C5B9000AE3D
:10275B00E0FCA3E0FDA3E0FEA3E0FF9000AA121CA7
:10276B005B9000AAE0FCA3E0FDA3E0FEA3E0FF90DA
:10277B0000A6E0F8A3E0F9A3E0FAA3E0FB12181619
:10278B009000AAE0F8A3E0F9A3E0FAA3E0FB12188B
:10279B0016A804A905AA06AB07E4FFFE7DC07C3F83
:1027AB001217219000AAE0F8A3E0F9A3E0FAA3E046
:1027BB00FB1218169000AA121C5B9000AAE0FCA357
:0827CB00E0FDA3E0FEA3E0FF26
:0127D30022E3
:072D7300D2B4122D7AC2B4A4
:042D7A007F02DFFEF7
:012D7E002232
:0F2D5700D2B5D2B4122D7AC2B5122D7AC2B422DF
:0C2D7F00C2B5D2B4122D7AD2B5022D7A62
:0D2D6600D2B4122D7AA2B5C2B4122D7A2279
:022D1E00AE07FE
:102D2000E4FDEE25E0FE92B5122D730DEDB408F230
:032D3000022D660B
:102CAB00E4FED2B5FDEE25E0FED2B4122D7AA2B52C
:102CBB00E4334EFEC2B4122D7A0DEDB408E7AF0625
:012CCB0022E6
:102D0500AC05AB07122D577FD0122D1EAF03122D28
:092D15001EAF04122D1E022D7FD9
:102C8800E4FD7F6B122D057D077F19122D057D044C
:102C98007F1A122D057D087F1B122D057D187F1CBC
:032CA800022D05F5
:0B2A510090008AEBF0A3EAF0A3E9F08C
:102A5C00122D577FD0122D1E7F3B122D1E122D577B
:102A6C007FD1122D1EE4FC122CAB90008AE0FBA34C
:102A7C00E0FAA3E0F98C82758300EF121B46C2B515
:102A8C00122D730CECB40DDF122CAB90008AE0FB12
:102A9C00A3E0FAA3E0F9AE048E82758300EF121B5B
:092AAC0046D2B5122D73022D7FF4
:081EA90090008AEEF0A3EFF0B7
:101EB100AE04AF059000BAE0FCA3E0FD90008CEC0D
:101EC100F0A3EDF090008CECF0A3EDF09000BDE0FC
:101ED1002FFF9000BCE03EFE3395E0FDFC900092A8
:101EE100121C5B900092E0FCA3E0FDA3E0FEA3E0E6
:101EF100FF780F121BEB900098121C5BAE02AF0330
:101F0100EE3395E0FDFC900092E0F8A3E0F9A3E048
:101F1100FAA3E02FFBEA3EFAE93DF9E83CF890002C
:101F210098E0FCA3E0FDA3E0FEA3E0FF122BCF901D
:101F31000096EEF0A3EFF090008CE0FEA3E0FFC36B
:101F410090008BE09FFF90008AE09EAB07FA3395EB
:101F5100E0F9F8900096E0FEA3E0FFEE3395E0FD96
:101F6100FC121B7A780F121BD7A804A905AA06AB8D
:101F71000790008CE0FEA3E0FFEE3395E0FDFCEB63
:101F81002FFFEA3EFEE93DFDE83CFCA3121C5B90FD
:101F91000096E0FEA3E0FBAA06EA3395E0F9F8C358
:101FA100E49BFF74809AFEE499FDE498FC90009212
:101FB100E0F8A3E0F9A3E0FAA3E0FB121B7A780FA3
:101FC100121BD79000BCEEF0A3EFF090008EA3A3FC
:0D1FD100E0FEA3E0FF9000BAEEF0A3EFF0F9
:011FDE0022E0
:081FDF0090008AEEF0A3EFF080
:101FE700AE04AF059000BEE0FCA3E0FD90008CECD2
:101FF700F0A3EDF090008CECF0A3EDF09000C1E0C1
:102007002FFF9000C0E03EFE3395E0FDFC9000926C
:10201700121C5B900092E0FCA3E0FDA3E0FEA3E0AE
:10202700FF780F121BEB900098121C5BAE02AF03F8
:10203700EE3395E0FDFC900092E0F8A3E0F9A3E011
:10204700FAA3E02FFBEA3EFAE93DF9E83CF89000F5
:1020570098E0FCA3E0FDA3E0FEA3E0FF122BCF90E6
:102067000096EEF0A3EFF090008CE0FEA3E0FFC334
:1020770090008BE09FFF90008AE09EAB07FA3395B4
:10208700E0F9F8900096E0FEA3E0FFEE3395E0FD5F
:10209700FC121B7A780F121BD7A804A905AA06AB56
:1020A7000790008CE0FEA3E0FFEE3395E0FDFCEB2C
:1020B7002FFFEA3EFEE93DFDE83CFCA3121C5B90C6
:1020C7000096E0FEA3E0FBAA06EA3395E0F9F8C321
:1020D700E49BFF74809AFEE499FDE498FC900092DB
:1020E700E0F8A3E0F9A3E0FAA3E0FB121B7A780F6C
:1020F700121BD79000C0EEF0A3EFF090008EA3A3C1
:0D210700E0FEA3E0FF9000BEEEF0A3EFF0BD
:0121140022A8
:0821150090008AEEF0A3EFF048
:10211D00AE04AF059000C2E0FCA3E0FD90008CEC96
:10212D00F0A3EDF090008CECF0A3EDF09000C5E085
:10213D002FFF9000C4E03EFE3395E0FDFC90009231
:10214D00121C5B900092E0FCA3E0FDA3E0FEA3E077
:10215D00FF780F121BEB900098121C5BAE02AF03C1
:10216D00EE3395E0FDFC900092E0F8A3E0F9A3E0DA
:10217D00FAA3E02FFBEA3EFAE93DF9E83CF89000BE
:10218D0098E0FCA3E0FDA3E0FEA3E0FF122BCF90AF
:10219D000096EEF0A3EFF090008CE0FEA3E0FFC3FD
:1021AD0090008BE09FFF90008AE09EAB07FA33957D
:1021BD00E0F9F8900096E0FEA3E0FFEE3395E0FD28
:1021CD00FC121B7A780F121BD7A804A905AA06AB1F
:1021DD000790008CE0FEA3E0FFEE3395E0FDFCEBF5
:1021ED002FFFEA3EFEE93DFDE83CFCA3121C5B908F
:1021FD000096E0FEA3E0FBAA06EA3395E0F9F8C3EA
:10220D00E49BFF74809AFEE499FDE498FC900092A3
:10221D00E0F8A3E0F9A3E0FAA3E0FB121B7A780F34
:10222D00121BD79000C4EEF0A3EFF090008EA3A385
:0D223D00E0FEA3E0FF9000C2EEF0A3EFF082
:01224A002271
:08224B0090008AEEF0A3EFF011
:10225300AE04AF059000C6E0FCA3E0FD90008CEC5B
:10226300F0A3EDF090008CECF0A3EDF09000C9E04A
:102273002FFF9000C8E03EFE3395E0FDFC900092F6
:10228300121C5B900092E0FCA3E0FDA3E0FEA3E040
:10229300FF780F121BEB900098121C5BAE02AF038A
:1022A300EE3395E0FDFC900092E0F8A3E0F9A3E0A3
:1022B300FAA3E02FFBEA3EFAE93DF9E83CF8900087
:1022C30098E0FCA3E0FDA3E0FEA3E0FF122BCF9078
:1022D3000096EEF0A3EFF090008CE0FEA3E0FFC3C6
:1022E30090008BE09FFF90008AE09EAB07FA339546
:1022F300E0F9F8900096E0FEA3E0FFEE3395E0FDF1
:10230300FC121B7A780F121BD7A804A905AA06ABE7
:102313000790008CE0FEA3E0FFEE3395E0FDFCEBBD
:102323002FFFEA3EFEE93DFDE83CFCA3121C5B9057
:102333000096E0FEA3E0FBAA06EA3395E0F9F8C3B2
:10234300E49BFF74809AFEE499FDE498FC9000926C
:10235300E0F8A3E0F9A3E0FAA3E0FB121B7A780FFD
:10236300121BD79000C8EEF0A3EFF090008EA3A34A
:0D237300E0FEA3E0FF9000C6EEF0A3EFF047
:01238000223A
:10171E00021AE4E86480F8E933E83360110460F0FB
:10172E00ED33EC337009E8FCE9FDEAFEEBFF220431
:10173E0060DED3EB9FEA9EE99DE8C2E78CF0C2F72C
:10174E0095F0400CE8CCF8E9CDF9EACEFAEBCFFBF8
:10175E00121AAF85D0F05804700320D5B3E8047088
:10176E00075002B2D5021AEE92D5EC0460F7E4CC23
:10177E00C0E0C398F8603B94186008400DD0E0FBC1
:10178E00021AC6E4FBFAC9FC8028E830E406E4C974
:10179E00FBE4CAFCE830E305E4C9CACBFCE8540715
:1017AE006010F8C3E913F9EA13FAEB13FBEC13FC20
:1017BE00D8F130F52FC3E49CFCEF9BFFEE9AFEEDC3
:1017CE0099FDD0E0FBEF4E4D4C701222DB03021A56
:1017DE00EBEC2CFCEF33FFEE33FEED33FDED30E79B
:1017EE00EB021AC6EF2BFFEE3AFEED39FDD0E0FB11
:1017FE0050130BBB0003021AEEED13FDEE13FEEFBA
:08180E0013FFEC13FC021AC6E3
:10181600EC4D6011E8497017ED33EC3304600DE4CC
:10182600FCFFFEFD22E933E8330470F8021AE412E5
:101836001AAF58046009E4CC2481500628500902E6
:101846001AEE284003021AEBC0E0EB4A7044B98056
:1018560006D0E0FB021ADAEF4E701CBD8008EBFFE3
:10186600EAFEE9FD80EBE98DF0A4FEE5F00218FF43
:10187600E9CDF9EAFEEBFFEF89F0A4FCE5F0CE89AD
:10188600F0A42EFFE435F0CD89F0A42DFEE435F06A
:101896008067EF4E7005BD80D780C3EF8BF0A4AC98
:1018A600F0EE8BF0A42CFCE435F0F8EF8AF0A42CD3
:1018B600E5F038FCE433CB8DF0A42CFCE5F03BF8E6
:1018C600EE8AF0A42CFCE5F038F8E433CF89F0A4D6
:1018D6002CFCE5F038CF3400CE89F0A42FFFE5F0DC
:1018E6003EFEE433C98DF0A42EFEE5F039CD8AF034
:1018F600A42FFFE5F03EFEE43DFD33D0E0FB5007AC
:101906000BBB000F021AEEEC2CFCEF33FFEE33FE9E
:06191600ED33FD021AC6CC
:10191C00021AEEEC5D046005E859047003021AE447
:10192C00121AAF580460F6EC4860F2EC7004FDFE3D
:10193C00FF22C860DB2481C85009C398600250069E
:10194C00021AEB9850CAF582E9294B4A7005AB8212
:10195C00021ADA75F0007C1A7880C3EF9BEE9AEDD0
:10196C0099400DC3EF9BFFEE9AFEED99FDE842F016
:10197C00DC23ACF0D0E0FFD0E0FED0E0FDAB822069
:10198C00E7101BEB60BAEC2CFCEF33FFEE33FEEDF3
:10199C0033FD021AC6E803F830E705C0F075F00015
:1019AC00EF2FFFEE33FEED33FD40B830E7C280AAD7
:1019BC0074F8CC6480CCC86480C8F582046043C3DE
:1019CC00EB9FF5F0EA9E42F0E99D42F0E89C45F071
:1019DC0060305018E5825FFFE582F42B5582FB5096
:1019EC00210ABA001D09B90019088016E5825BFBB3
:1019FC00E582F42F5582FF50090EBE00050DBD0087
:101A0C00010CC3EB9FF5F0EA9E42F0E99D42F0E831
:0D1A1C009C45F06007CC4820E701B3EC22A8
:101A2900ED33EC33600A047003BD8004ECB2E7FCCB
:011A3900228A
:101A3A0075F020800E75F010800575F0087D007E27
:101A4A00007F003392D530D503121BC9EC33401006
:101A5A00EF33FFEE33FEED33FDEC33FCD5F0ED2230
:0E1A6A00E5F0247EA2D513CC92E7CDCEFF226C
:101A7800EDD2E7CD33EC3392D524814006E4FFFE66
:101A8800FDFC22FCE4CFCECDCC24E0501174FF80C5
:101A9800EDC3CC13CCCD13CDCE13CECF13CF047062
:071AA800F030D5DE021BC97E
:102928009000A2121C5B9000A6E0F8A3E0F9A3E0D7
:10293800FAA3E0FB9000A2E0FCA3E0FDA3E0FEA365
:10294800E0FF12191F1223A19000A2121C5B900035
:10295800A6E030E7599000A2E0FCA3E0FDA3E0FE6A
:10296800A3E0FFECC0E0EDC0E0EEC0E0EFC0E0E4C3
:10297800FFFEFDFC9000A2E0F8A3E0F9A3E0FAA3B3
:10298800E0FB1219BC7BDB600250087A0F794978AA
:102998004080067A0F794978C0D0E0FFD0E0FED0B9
:1029A800E0FDD0E0FC1217259000A2121C5B9000FD
:0D29B800A2E0FCA3E0FDA3E0FEA3E0FF22EF
:102C1300ECC0E0F8EDC0E0F9EEC0E0FAEFC0E0FB95
:102C2300121816EC6480FC7B007A007980783F12DE
:102C330017251227D8D0E0CFFBD0E0CEFAD0E0CDD5
:0B2C4300F9D0E0CCF812191F0223A109
:101AAF00E9D2E7C933E833F892D5EDD2E7CD33EC7D
:071ABF0033FC5002B2D522F6
:101AC600EC30E7100FBF000C0EBE00080DBD000481
:101AD6000BEB6014A2D5EB13FCED92E7FD2274FF2D
:101AE600FCFDFEFF22E480F8A2D574FF13FC7D8086
:031AF600E480EF9A
:1027D400021AE422EDA2E7D2E7F9EC3340F260F307
:1027E400B4FF08ED547F70E8021AEEF82481C2E0C9
:1027F400C0E0F40428FAC313FCED92E7FD9000A2B4
:10280400121C5BEEA2E7E9BA7F02C3133400940002
:10281400FA75F091A4E5F013F494FE8AF0A433E57C
:10282400F033248CD313FDE492E7FE7F007C3F75E4
:102834008302ECC0E0F8EDC0E0F9EEC0E0FAEFC0CE
:10284400E0FB8583F09000A2121C0A85F083121924
:102854001FD0E0FBD0E0FAD0E0F9D0E0F812172561
:10286400ED6480FD30E7011CD583C7ED33CC33F82C
:0C287400D0E0A2E71328C313CC13FD2210
:10238100BE1249253E4CCCCDBEAAAAAB3F8000006F
:102391003E7ADBB03EED63383F24BC7D3F490FDB25
:1023A100ED33ECC2E7CC339200B4FF13ED547F6000
:1023B10003021AE47FDB7E0F7DC97C3F022496C2B3
:1023C10001C3947F401E7007EDD2E794904015EF52
:1023D100FBEEFAEDF9ECF87F007E007D807C3F1288
:1023E100191FD201ED33EC33248430E705E4C0E05A
:1023F100806B04FAEDD2E754F0C333DAFD540734AD
:10240100002323C0E0CCC0E0F8EDC0E0F9EEC0E06D
:10241100FAEFC0E0FBE4121A44EC24FEFC9000AA9F
:10242100121C5B1218167B007A007980783F121714
:10243100259000AAE0B2E7CCF0A3E0CDF0A3E0CE76
:10244100F0A3E0CFF0D0E0FBD0E0FAD0E0F9D0E0AB
:10245100F81217259000AA121C3312191F9000AA16
:10246100121C5B9023817403121AF99000AA121CAA
:1024710033121816D0E0600F248DF582E43423F571
:1024810083121C3F12172530010B7BDB7A0F79C9B0
:1024910078BF121725ED33EC336006ECA20092E70A
:0224A100FC221B
:101AF900C0E0EFFBEEFAEDF9ECF8121816D0E0F5BC
:101B0900F0EFFBEEFAEDF9ECF8121C16A3A3A3A370
:101B1900E8C0E0E9C0E0EAC0E0EBC0E0C0F01218BC
:101B290016121C3FA3A3A3A3121725D0F0D0E0FBE4
:0D1B3900D0E0FAD0E0F9D0E0F8D5F0D422E9
:030000000229C50D
:0C29C500787FE4F6D8FD75819C022A0C96
:101B4600F8BB010DE58229F582E5833AF583E8F0D5
:101B5600225006E92582C8F622BBFE05E92582C881
:021B6600F22269
:101B6800EF8DF0A4A8F0CF8CF0A428CE8DF0A42E91
:021B7800FE224B
:101B7A00E88FF0A4CC8BF0A42CFCE98EF0A42CFC0A
:101B8A008AF0EDA42CFCEA8EF0A4CDA8F08BF0A488
:101B9A002DCC3825F0FDE98FF0A42CCD35F0FCEBE7
:101BAA008EF0A4FEA9F0EB8FF0A4CFC5F02ECD39AC
:0F1BBA00FEE43CFCEAA42DCE35F0FDE43CFC2219
:102BCF00C2D5E830E70FB2D5E4C39BFBE49AFAE431
:102BDF0099F9E498F8EC30E717B2D5122C05121CCE
:102BEF00D4E4C39BFBE49AFAE499F9E498F88003E0
:102BFF00121CD430D50DE4C39FFFE49EFEE49DFD6F
:042C0F00E49CFC2223
:0E1BC900C3E49FFFE49EFEE49DFDE49CFC222D
:101BD700E86010ECA2E713FCED13FDEE13FEEF1324
:041BE700FFD8F02211
:101BEB00E8600FEFC333FFEE33FEED33FDEC33FC58
:031BFB00D8F122FC
:0C1BFE00E6FC08E6FD08E6FE08E6FF2213
:0C1C0A00E0FCA3E0FDA3E0FEA3E0FF224D
:101C1600E493FC740193FD740293FE740393FF2214
:0D1C2600E6FB08E6F908E6FA08E6CBF8222E
:0C1C3300E0F8A3E0F9A3E0FAA3E0FB2234
:101C3F00E493F8740193F9740293FA740393FB22FB
:0C1C4F00ECF608EDF608EEF608EFF622C1
:0C1C5B00ECF0A3EDF0A3EEF0A3EFF022FC
:101C6700A8828583F0D083D082121C7E121C7E123C
:101C77001C7E121C7EE473E493A3C583C5F0C58361
:101C8700C8C582C8F0A3C583C5F0C583C8C582C8C7
:011C9700222A
:1029D1000224A3E493A3F8E493A34003F68001F255
:1029E10008DFF48029E493A3F85407240CC8C33307
:1029F100C4540F4420C8834004F456800146F6DFD6
:102A0100E4800B0102040810204080901D66E47EE2
:102A1100019360BCA3FF543F30E509541FFEE493CA
:102A2100A360010ECF54C025E060A840B8E493A391
:102A3100FAE493A3F8E493A3C8C582C8CAC583CABC
:102A4100F0A3C8C582C8CAC583CADFE9DEE780BE74
:011EA8000039
:101C980075F008758200EF2FFFEE33FECD33CDCC03
:101CA80033CCC58233C5829BED9AEC99E582984086
:101CB8000CF582EE9BFEED9AFDEC99FC0FD5F0D663
:101CC800E4CEFBE4CDFAE4CCF9A88222B800C1B98D
:101CD8000059BA002DEC8BF084CFCECDFCE5F0CBCB
:101CE800F97818EF2FFFEE33FEED33FDEC33FCEB04
:101CF80033FB10D703994004EB99FB0FD8E5E4F9BF
:101D0800FA227818EF2FFFEE33FEED33FDEC33FCAB
:101D1800C933C910D7059BE99A4007EC9BFCE99A9F
:101D2800F90FD8E0E4C9FAE4CCFB2275F010EF2FE4
:101D3800FFEE33FEED33FDCC33CCC833C810D707E4
:101D48009BEC9AE899400AED9BFDEC9AFCE899F81F
:0E1D58000FD5F0DAE4CDFBE4CCFAE4C8F922B2
:00000001FF
