:0A07B500759DC7E4F5BD75BC8022F8
:1006C400EF4488F5BC00000000E5BC30E4FB53BCFB
:1006D400EFAFBDEF75F004A4ADBE7C002DFFEC358B
:0206E400F0FE26
:0106E60022F1
:06069E00C2B67FC87E0019
:1006A400E4FDFCC3ED9FEC9E5015E4FBFA0BBB008C
:0F06B400010AEB64FA4A70F50DBD00010C80E4F9
:0106C3002214
:10072C007524807525807526807B007A00792412CB
:0D073C000675C2B67FA07E0F1206A4D2B6CD
:01074900228D
:10070A00E4F594F593F592F591F596F595F5B2F52C
:10071A00B1F5B4F5B3F5CAF5C9F5CCF5CBF5E2F503
:02072A00E122CA
:1000030012070A7F0A7E001206A41207B57F641244
:1000130006A41203E07F647E001206A420CC031220
:10002300072C7F011206C4EF7802CEC313CE13D878
:10003300F9F50D7F021206C4EF7802CEC313CE1377
:10004300D8F9F50E7F061206C4EF7802CEC313CE9D
:1000530013D8F9F50F850D10850E11F512E50DD3A3
:10006300948040028008E50DC394805009C37480D6
:10007300950DF5168003E4F516E50ED39480400242
:100083008008E50EC394805009C37480950EF5175C
:100093008003E4F517E50FD3948040028008E50F51
:1000A300C394805009C37480950FF5188003E4F559
:1000B300187B007A0079081206E785081F85092056
:1000C300850A1EE4F522F5217F0AFE1206A4E4FF49
:1000D3001206C48E0B8F0C7F011206C4EF7802CE7A
:1000E300C313CE13D8F9F50D7F061206C4EF7802B9
:1000F300CEC313CE13D8F9F50E7F021206C4EF78E0
:1001030002CEC313CE13D8F9F50F7F071206C4EF3F
:100113007802CEC313CE13D8F9FDD3E50C94E8E5EA
:100123000B94034008751903751AE88006850B19AB
:10013300850C1AE5102405FFE433FEE50DD39FEE8D
:100143006480F87480984014E50D9FFFE49EC31308
:10015300EF13FFE51025162FF51B8030E51024FB68
:10016300FFE50DC39F5022E51024FBFFE434FFFE9F
:10017300E50DFBC3EF9BFFEE9400C313EF13FFE505
:10018300102516C39FF51B8003751B80E5112405FD
:10019300FFE433FEE50ED39FEE6480F8748098404D
:1001A30014E50E9FFFE49EC313EF13FFE51125171C
:1001B3002FF51C8030E51124FBFFE50EC39F502271
:1001C300E51124FBFFE434FFFEE50EFBC3EF9BFFC9
:1001D300EE9400C313EF13FFE5112517C39FF51C1E
:1001E3008003751C80E5122405FFE433FEE50FD37D
:1001F3009FEE6480F87480984014E50F9FFFE49E9F
:10020300C313EF13FFE51225182FF51D8030E512F8
:1002130024FBFFE50FC39F5022E51224FBFFE434C8
:10022300FFFEE50FFBC3EF9BFFEE9400C313EF1339
:10023300FFE5122518C39FF51D8003751D80EDD3BF
:100243009402406E8D13E513D39423400BE513946E
:100253002B5005751401805DE513D39446400BE5DF
:100263001394505005751402804BE513D3946C40DE
:100273000BE513947550057514038039E513D39476
:1002830092400BE513949C50057514048027E513E5
:10029300D394C0400BE51394CA500575140580151B
:1002A300E513D394FA400E748094815008751406B4
:1002B3008003E4F514E514606A6515600CE514B475
:1002C3000107051E12069ED2B6E5156514600CE5FE
:1002D30014B40207151E12069ED2B6E51565146006
:1002E3000CE514B40307052012069ED2B6E5156586
:1002F30014600CE514B40407152012069ED2B6E56B
:10030300156514600CE514B40607051F12069ED28A
:10031300B6E5156514600CE514B40507151F120640
:100323009ED2B685141520B210752101D2B7C2B67C
:100333007F2C7E011206A4D2B6C3E51A9405E519F3
:100343009400501720CD14752105C2B712069ED212
:10035300B61206A4C2B61206A4D2B620CC1D851FBF
:1003630008852009851E0A7B007A00790812067524
:10037300C2B67FF47E011206A4D2B6AE19AF1A7CC0
:10038300007DFF120550AB07E52225212BFAAE199C
:10039300AF1A7C007DFF120550AF05EA2F251B2500
:1003A3001C251D251F2520251EF523AE2205228E83
:1003B300318521328B338F34851B35851C36851D62
:1003C30037851F38852039851E3AF53B7B007A0037
:0D03D30079317D0F1205FE1206A00200D147
:10078B00D3EF9400EE94004007EF1F70F31E80F040
:01079B00223B
:0405A5007B01E4FDF5
:0205A900AA079F
:1005AB00C2B5E4FFFEEA339294D295C295EA25E0F8
:1005BB00FA0FBF00010EEF64084E70E9E4FEFFED89
:1005CB00339294D295C295ED25E0FD0FBF00010E3D
:1005DB00EF64084E70E9E4FEFFEB339294D295C2C0
:1005EB0095EB25E0FB0FBF00010EEF64084E70E9A1
:0205FB00D2B577
:0105FD0022DB
:1003E000C2B47FF47E0112078BD2B47FF47E011277
:1003F000078BD2B37BEF7D6FE4FF1205A97B817D74
:10040000567F011205A97B177D667F021205A97B25
:10041000C97D9C7F041205A97B377D667F05120587
:10042000A9E4FBFD7F071205A97B907D6C7F081274
:1004300005A9E4FB7D487F091205A97BFD7D7F7F2F
:100440000A1205A97B08E4FD7F0B1205A9E4FBFD58
:100450007F0C1205A97BBD7D487F0D1205A97BFF8E
:10046000E4FD7F161205A97B057D807F171205A983
:100470007B67E4FD7F181205A97B597D167F191251
:1004800005A97BE07D197F1A1205A9E4FB7D137F86
:100490001B1205A9E4FB7D187F1C1205A9E4FB7D56
:1004A000587F201205A97BC77D3F7F211205A9E453
:1004B000FB7D207F221205A9E4FB7D0A7F23120524
:1004C000A97F241205A57F251205A57B01E4FD7FE8
:1004D000261205A97B01E4FD7F271205A97B027D79
:1004E000447F281205A9E4FB7DB87F291205A97B6A
:1004F000FF7DFD7F2A1205A97B0FE4FD7F2B0205FE
:01050000A951
:10064C00C2B5E4FEEF339294D295C295EF25E0FF4C
:10065C000EBE08F0E4FEED339294D295C295ED25D2
:08066C00E0FD0EBE08F0D2B55E
:010674002263
:0805FE008B248A2589268D2734
:10060600E4FC7B807D807F341205A9E4FBFD7F0737
:100616001205A9E4FBAD277F321205A9ECC3952785
:100626005017AB24AA25A9268C82758300120501D2
:10063600FD7F3212064C0C80E37B207D017F071282
:0506460005A930B3FD21
:01064B00228C
:0D079C00E4F5C7F5C5F5C675C380F5C422A8
:10074A0075C78075C5018FC48EC375C65A75C6A58F
:06075A0000AFC212079C73
:010760002276
:1007610075C78075C5028FC48EC38DC275C65A7593
:06077100C6A50002079C72
:1007770075C78075C5038FC48EC375C65A75C6A560
:040787000002079CC9
:060675008B2E8A2F893054
:10067B00E4FFFE120777E4FCECFF7E00AB2EAA2F03
:10068B00A930F582758300120501FD1207610CBCC0
:02069B0005E672
:01069D00223A
:0606E7008B248A25892600
:1006ED00E4FDEDFF7E0012074AAB24AA25A9268D55
:0C06FD0082758300EF12052E0DBD05E68E
:0107090022CD
:030000000207A94B
:0C07A900787FE4F6D8FD7581460200035D
:10050100BB010CE58229F582E5833AF583E02250AF
:1005110006E92582F8E622BBFE06E92582F8E222F9
:0D052100E58229F582E5833AF583E4932213
:10052E00F8BB010DE58229F582E5833AF583E8F003
:10053E00225006E92582C8F622BBFE05E92582C8AF
:02054E00F22297
:10055000BC000BBE0029EF8DF084FFADF022E4CC8F
:10056000F875F008EF2FFFEE33FEEC33FCEE9DEC58
:10057000984005FCEE9DFE0FD5F0E9E4CEFD22ED9E
:10058000F8F5F0EE8420D21CFEADF075F008EF2FE8
:10059000FFED33FD4007985006D5F0F222C398FDD9
:0505A0000FD5F0EA2276
:00000001FF
